{
  "contractName": "Bacem",
  "abi": [
    {
      "inputs": [],
      "payable": false,
      "stateMutability": "nonpayable",
      "type": "constructor"
    },
    {
      "constant": true,
      "inputs": [],
      "name": "hi",
      "outputs": [
        {
          "name": "",
          "type": "string"
        }
      ],
      "payable": false,
      "stateMutability": "pure",
      "type": "function"
    },
    {
      "constant": true,
      "inputs": [],
      "name": "getOussama",
      "outputs": [
        {
          "name": "",
          "type": "int256"
        }
      ],
      "payable": false,
      "stateMutability": "pure",
      "type": "function"
    }
  ],
  "bytecode": "0x608060405234801561001057600080fd5b5061014e806100206000396000f3fe608060405234801561001057600080fd5b50600436106100365760003560e01c8063a99dca3f1461003b578063fd3b478b146100be575b600080fd5b6100436100dc565b6040518080602001828103825283818151815260200191508051906020019080838360005b83811015610083578082015181840152602081019050610068565b50505050905090810190601f1680156100b05780820380516001836020036101000a031916815260200191505b509250505060405180910390f35b6100c6610119565b6040518082815260200191505060405180910390f35b60606040518060400160405280601a81526020017f4f757373616d612073616964203a2048656c6c6f20576f726c64000000000000815250905090565b6000600890509056fea165627a7a72305820c308ef993a06cb45ae53fe7c29f99235213f555b0730e36232dc0c5a1f22554e0029",
  "source": "pragma solidity ^0.5.0;\r\n\r\n\r\ncontract Bacem {\r\n  \r\n  \r\n  \t\r\n  \r\n  \tconstructor() public {\r\n  \t}\r\n  \r\n  \r\n\r\n    function hi() public pure returns (string memory) {\r\n        return (\"Oussama said : Hello World\");\r\n    }\r\n    \r\n    function getOussama() public pure returns (int) {\r\n        return 8;\r\n    }\r\n    \r\n  \r\n    \r\n}",
  "sourcePath": "C:/Users/Oussema-PC/Desktop/getOussama/contracts/bacem.sol",
  "compiler": {
    "name": "solc",
    "version": "0.5.8+commit.23d335f2.Emscripten.clang"
  },
  "schemaVersion": "3.0.14",
  "updatedAt": "2019-08-30T14:10:45.368Z",
  "devdoc": {
    "methods": {}
  },
  "userdoc": {
    "methods": {}
  }
}