{
  "contractName": "SimpleStorage",
  "abi": [
    {
      "constant": true,
      "inputs": [],
      "name": "myVariable",
      "outputs": [
        {
          "name": "",
          "type": "uint256"
        }
      ],
      "payable": false,
      "stateMutability": "view",
      "type": "function"
    },
    {
      "constant": false,
      "inputs": [
        {
          "name": "x",
          "type": "uint256"
        }
      ],
      "name": "set",
      "outputs": [],
      "payable": false,
      "stateMutability": "nonpayable",
      "type": "function"
    },
    {
      "constant": true,
      "inputs": [],
      "name": "get",
      "outputs": [
        {
          "name": "",
          "type": "uint256"
        }
      ],
      "payable": false,
      "stateMutability": "view",
      "type": "function"
    }
  ],
  "bytecode": "0x6080604052600b60005534801561001557600080fd5b5060e1806100246000396000f30060806040526004361060525763ffffffff7c01000000000000000000000000000000000000000000000000000000006000350416634e59ff568114605757806360fe47b114607b5780636d4ce63c146092575b600080fd5b348015606257600080fd5b50606960a4565b60408051918252519081900360200190f35b348015608657600080fd5b50609060043560aa565b005b348015609d57600080fd5b50606960af565b60005481565b600055565b600054905600a165627a7a723058204c526e0f7df8dfdd359d3853c5ad6d78aebaaaadd1dacf8726f78a2cce682f630029",
  "source": "pragma solidity ^0.4.17;\r\n\r\n contract  SimpleStorage  {\r\n\r\n   uint public myVariable=11;\r\n\r\n function set(uint x) public {\r\n        myVariable =x;\r\n        \r\n    }\r\n  function get() constant public returns (uint) {\r\n    return myVariable ;\r\n  }\r\n}",
  "sourcePath": "C:/Users/amani.radaoui/Desktop/getOussama - with geth (2)/getOussama - with geth/contracts/SimpleStorage.sol",
  "compiler": {
    "name": "solc",
    "version": "0.4.24+commit.e67f0147.Emscripten.clang"
  },
  "schemaVersion": "3.0.11",
  "updatedAt": "2019-10-30T10:44:24.766Z",
  "devdoc": {
    "methods": {}
  },
  "userdoc": {
    "methods": {}
  }
}